{
  "contractName": "Conference",
  "abi": [
    {
      "constant": true,
      "inputs": [
        {
          "name": "",
          "type": "address"
        }
      ],
      "name": "registrantsPaid",
      "outputs": [
        {
          "name": "",
          "type": "uint256"
        }
      ],
      "payable": false,
      "stateMutability": "view",
      "type": "function"
    },
    {
      "constant": true,
      "inputs": [],
      "name": "organizer",
      "outputs": [
        {
          "name": "",
          "type": "address"
        }
      ],
      "payable": false,
      "stateMutability": "view",
      "type": "function"
    },
    {
      "constant": true,
      "inputs": [],
      "name": "quota",
      "outputs": [
        {
          "name": "",
          "type": "uint256"
        }
      ],
      "payable": false,
      "stateMutability": "view",
      "type": "function"
    },
    {
      "constant": true,
      "inputs": [],
      "name": "numRegistrants",
      "outputs": [
        {
          "name": "",
          "type": "uint256"
        }
      ],
      "payable": false,
      "stateMutability": "view",
      "type": "function"
    },
    {
      "inputs": [],
      "payable": false,
      "stateMutability": "nonpayable",
      "type": "constructor"
    },
    {
      "constant": false,
      "inputs": [],
      "name": "buyTicket",
      "outputs": [],
      "payable": true,
      "stateMutability": "payable",
      "type": "function"
    },
    {
      "constant": false,
      "inputs": [
        {
          "name": "newquota",
          "type": "uint256"
        }
      ],
      "name": "changeQuota",
      "outputs": [],
      "payable": false,
      "stateMutability": "nonpayable",
      "type": "function"
    },
    {
      "constant": false,
      "inputs": [
        {
          "name": "recipient",
          "type": "address"
        },
        {
          "name": "amount",
          "type": "uint256"
        }
      ],
      "name": "refundTicket",
      "outputs": [],
      "payable": false,
      "stateMutability": "nonpayable",
      "type": "function"
    },
    {
      "constant": false,
      "inputs": [],
      "name": "destroy",
      "outputs": [],
      "payable": false,
      "stateMutability": "nonpayable",
      "type": "function"
    }
  ],
  "bytecode": "0x608060405234801561001057600080fd5b50336000806101000a81548173ffffffffffffffffffffffffffffffffffffffff021916908373ffffffffffffffffffffffffffffffffffffffff16021790555060646003819055506000600281905550610576806100706000396000f30060806040526004361061008e576000357c0100000000000000000000000000000000000000000000000000000000900463ffffffff16806313381fbf1461009357806361203265146100ea578063705099b91461014157806383197ef01461018e578063a977c71e146101a5578063cebe09c9146101d2578063ec3a6f73146101fd578063edca914c14610228575b600080fd5b34801561009f57600080fd5b506100d4600480360381019080803573ffffffffffffffffffffffffffffffffffffffff169060200190929190505050610232565b6040518082815260200191505060405180910390f35b3480156100f657600080fd5b506100ff61024a565b604051808273ffffffffffffffffffffffffffffffffffffffff1673ffffffffffffffffffffffffffffffffffffffff16815260200191505060405180910390f35b34801561014d57600080fd5b5061018c600480360381019080803573ffffffffffffffffffffffffffffffffffffffff1690602001909291908035906020019092919050505061026f565b005b34801561019a57600080fd5b506101a36103dd565b005b3480156101b157600080fd5b506101d06004803603810190808035906020019092919050505061046e565b005b3480156101de57600080fd5b506101e76104d4565b6040518082815260200191505060405180910390f35b34801561020957600080fd5b506102126104da565b6040518082815260200191505060405180910390f35b6102306104e0565b005b60016020528060005260406000206000915090505481565b6000809054906101000a900473ffffffffffffffffffffffffffffffffffffffff1681565b60008060009054906101000a900473ffffffffffffffffffffffffffffffffffffffff1673ffffffffffffffffffffffffffffffffffffffff163373ffffffffffffffffffffffffffffffffffffffff161415156102cc576103d8565b81600160008573ffffffffffffffffffffffffffffffffffffffff1673ffffffffffffffffffffffffffffffffffffffff1681526020019081526020016000205414156103d757309050818173ffffffffffffffffffffffffffffffffffffffff16311015156103d6578273ffffffffffffffffffffffffffffffffffffffff166108fc839081150290604051600060405180830381858888f1935050505015801561037c573d6000803e3d6000fd5b506000600160008573ffffffffffffffffffffffffffffffffffffffff1673ffffffffffffffffffffffffffffffffffffffff16815260200190815260200160002081905550600260008154809291906001900391905055505b5b5b505050565b6000809054906101000a900473ffffffffffffffffffffffffffffffffffffffff1673ffffffffffffffffffffffffffffffffffffffff163373ffffffffffffffffffffffffffffffffffffffff16141561046c576000809054906101000a900473ffffffffffffffffffffffffffffffffffffffff1673ffffffffffffffffffffffffffffffffffffffff16ff5b565b6000809054906101000a900473ffffffffffffffffffffffffffffffffffffffff1673ffffffffffffffffffffffffffffffffffffffff163373ffffffffffffffffffffffffffffffffffffffff161415156104c9576104d1565b806003819055505b50565b60035481565b60025481565b6003546002541015156104f257600080fd5b34600160003373ffffffffffffffffffffffffffffffffffffffff1673ffffffffffffffffffffffffffffffffffffffff168152602001908152602001600020819055506002600081548092919060010191905055505600a165627a7a72305820e59f7f449dca6bfd92984f81375cdaed46cfbfe6f81e0013a7c7ce02ade3742d0029",
  "source": "pragma solidity ^0.4.19;\n\ncontract Conference {  // can be killed, so the owner gets sent the money in the end\n\n\taddress public organizer;\n\tmapping (address => uint) public registrantsPaid;\n\tuint public numRegistrants;\n\tuint public quota;\n\n  constructor() public {\n\t\torganizer = msg.sender;\n\t\tquota = 100;\n\t\tnumRegistrants = 0;\n\t}\n\n\tfunction buyTicket() public payable{\n\t\tif (numRegistrants >= quota) {\n\t\t\trevert();\n\t\t}\n\t\tregistrantsPaid[msg.sender] = msg.value;\n\t\tnumRegistrants++;\n\n\t}\n\n\tfunction changeQuota(uint newquota) public {\n\t\tif (msg.sender != organizer) { return; }\n\t\tquota = newquota;\n\t}\n\n\tfunction refundTicket(address recipient, uint amount) public {\n\t\tif (msg.sender != organizer) { return; }\n\t\tif (registrantsPaid[recipient] == amount) {\n\t\t\taddress myAddress = this;\n\t\t\tif (myAddress.balance >= amount) {\n\t\t\t\trecipient.transfer(amount);\n\n\t\t\t\tregistrantsPaid[recipient] = 0;\n\t\t\t\tnumRegistrants--;\n\t\t\t}\n\t\t}\n\t\treturn;\n\t}\n\n\tfunction destroy() public {\n\t\tif (msg.sender == organizer) { // without this funds could be locked in the contract forever!\n\t\t\tselfdestruct(organizer);\n\t\t}\n\t}\n}\n",
  "sourcePath": "/Users/christianmiljkovic/interview-coding/projects/first-dapp/contracts/Conference.sol",
  "compiler": {
    "name": "solc",
    "version": "0.4.23+commit.124ca40d.Emscripten.clang"
  },
  "schemaVersion": "2.0.0",
  "updatedAt": "2018-04-27T02:07:09.295Z"
}